:103C00000C94341E0C94511E0C94511E0C94511E95
:103C10000C94511E0C94511E0C94511E0C94511E68
:103C20000C94511E0C94511E0C94511E0C94511E58
:103C30000C94511E0C94511E0C94511E0C94511E48
:103C40000C94511E0C94511E0C94511E0C94511E38
:103C50000C94511E0C94511E0C94511E0C94511E28
:103C60000C94511E0C94511E11241FBECFEFD4E0B2
:103C7000DEBFCDBF11E0A0E0B1E0E4E7FFE302C0AA
:103C800005900D92A230B107D9F721E0A2E0B1E092
:103C900001C01D92A730B207E1F70E94DD1E0C940F
:103CA000B81F0C94001E1092C5008CE08093C400D5
:103CB000E0ECF0E080818260808388E18093C10045
:103CC00086E08093C20008958091C00087FFFCCFFA
:103CD0008091C60008959091C00095FFFCCF80931D
:103CE000C60008951F93CF93DF93CDB7DEB7C058BA
:103CF000D1090FB6F894DEBF0FBECDBF0E94641E7F
:103D0000182FE0910201F091030181E090E08C0F07
:103D10009D1FE80FF91F10838AE20E946B1E0E940C
:103D2000641E20910201309103012F5F3F4F3093B9
:103D30000301209302011A3209F7CE010196C058FF
:103D4000DF4F0FB6F894DEBF0FBECDBFDF91CF912E
:103D50001F910895CF93E0910001F0910101E80FC8
:103D6000F91FC0818C2F0E946B1EC13410F089ECAA
:103D700001C080ED8C0F20910001309101012F5F77
:103D80003F4F3093010120930001CF9108951F937D
:103D9000CF93DF93EC010E94AA1E182F1295107F7B
:103DA000CE010E94AA1E812B90910601980F90933C
:103DB0000601DF91CF911F910895CF93DF93CDB787
:103DC000DEB7C058D1090FB6F894DEBF0FBECDBF25
:103DD0000E94531E8AE20E946B1ECE0101967C0156
:103DE0006E0192E8C90ED11CAA24A394B12C0E94A2
:103DF000641E182F8AE20E946B1E0E94641E1537F3
:103E000009F0A3C0E0E0F0E083E080935700E8957C
:103E100007B600FCFDCFE058FF4FE11568E3F60759
:103E2000A1F755245A9485E0882E0E94721E8C01B9
:103E3000FC0180818A3311F085E484C01092060170
:103E4000C8010E94C71E982EC8010E94C71E482E96
:103E5000C8010E94C71E282EC8010E94C71E382E06
:103E60003701862D8E19891538F4C8010E94C71EA6
:103E7000F30181933F01F5CFC8010E94C71E8091D5
:103E80000601882311F083E45DC031104CC097FC1B
:103E900006C0F701E90DF11D50829394F8CF222D51
:103EA00030E03429DE011296C7012E193F0939018D
:103EB000680E791EAC15BD0579F0FC0140816C914E
:103EC00050E0562B61E0F3010A0160935700E8953A
:103ED000112402961296EBCFF301E058F10980927B
:103EE0005700E89507B600FCFDCF81E180935700AD
:103EF000E8951092030110920201B0920101A09284
:103F00000001F80101900020E9F7AF01415051098B
:103F1000401B510B60E070E0C8010E94B11F83E5B7
:103F20000E946B1E82CF84E40E946B1EF1E03F1260
:103F30007CCF8CE40E946B1EE0910401F09105019E
:103F400009958DE40E946B1E52CF183709F04FCFB0
:103F500080E50E946B1EE0910401F0910501099536
:103F600046CFDC0101C06D9341505040E0F7089509
:043F7000F894FFCFF3
:023F740001004A
:0400000300003C00BD
:00000001FF
