:103C00000C94341E0C94511E0C94511E0C94511E95
:103C10000C94511E0C94511E0C94511E0C94511E68
:103C20000C94511E0C94511E0C94511E0C94511E58
:103C30000C94511E0C94511E0C94511E0C94511E48
:103C40000C94511E0C94511E0C94511E0C94511E38
:103C50000C94511E0C94511E0C94511E0C94511E28
:103C60000C94511E0C94511E11241FBECFEFD4E0B2
:103C7000DEBFCDBF11E0A0E0B1E0E6E8FFE302C0A7
:103C800005900D92A230B107D9F721E0A2E0B1E092
:103C900001C01D92A930B207E1F70E94E81E0C9402
:103CA000C11F0C94001E1092C5008CE08093C400CC
:103CB000E0ECF0E080818260808388E18093C10045
:103CC00086E08093C20008958091C00087FFFCCFFA
:103CD0008091C60008959091C00095FFFCCF80931D
:103CE000C60008951F93CF93DF93CDB7DEB7C058BA
:103CF000D1090FB6F894DEBF0FBECDBF8EE50E948E
:103D00006B1E8091020190910301892B59F40E944E
:103D1000641E80910201909103010196909303012A
:103D2000809302010E94641E182FE0910401F0911B
:103D3000050181E090E08C0F9D1FE80FF91F1083B3
:103D4000812F0E946B1E0E94641E209104013091FD
:103D500005012F5F3F4F30930501209304011A3274
:103D600009F7CE010196C058DF4F0FB6F894DEBFB9
:103D70000FBECDBFDF91CF911F910895209100011B
:103D800030910101820F931FFC018081813410F07A
:103D9000875301C080532F5F3F4F30930101209321
:103DA000000108951F93CF93DF93EC010E94BE1E84
:103DB000182F1295107FCE010E94BE1E812B90916C
:103DC0000801980F90930801DF91CF911F910895FA
:103DD000CF93DF93CDB7DEB7C058D1090FB6F894B3
:103DE000DEBF0FBECDBF0E94531E8AE20E946B1E33
:103DF000CE0101967C016E0192E8C90ED11CAA2465
:103E0000A394B12C0E94641E182F8AE20E946B1E9C
:103E1000153709F0A3C0E0E0F0E083E0809357009D
:103E2000E89507B600FCFDCFE058FF4FE11568E3C9
:103E3000F607A1F755245A9485E0882E0E94721E39
:103E40008C01FC0180818A3311F08AE384C01092D6
:103E50000801C8010E94D21E982EC8010E94D21EDD
:103E6000482EC8010E94D21E282EC8010E94D21ED0
:103E7000382E3701862D8E19891538F4C8010E9415
:103E8000D21EF30181933F01F5CFC8010E94D21EDB
:103E900080910801882311F083E45DC031104CC08B
:103EA00097FC06C0F701E90DF11D50829394F8CFFD
:103EB000222D30E03429DE011296C7012E193F0968
:103EC0003901680E791EAC15BD0579F0FC01408101
:103ED0006C9150E0562B61E0F3010A0160935700AA
:103EE000E895112402961296EBCFF301E058F10900
:103EF00080925700E89507B600FCFDCF81E18093E2
:103F00005700E8951092050110920401B09201014A
:103F1000A0920001F80101900020E9F7AF014150A3
:103F20005109401B510B60E070E0C8010E94BA1FAC
:103F300083E50E946B1E82CF84E40E946B1EF1E039
:103F40003F127CCF8CE40E946B1EE0910601F09141
:103F5000070109958DE40E946B1E54CF183709F0B4
:103F600051CF80E50E946B1EE0910601F0910701A0
:103F7000099548CFDC0101C06D9341505040E0F7F6
:063F80000895F894FFCF44
:023F8600010038
:0400000300003C00BD
:00000001FF
